{
  "_format": "hh-sol-artifact-1",
  "contractName": "WavePortal",
  "sourceName": "contracts/WavePortal.sol",
  "abi": [
    {
      "inputs": [],
      "stateMutability": "nonpayable",
      "type": "constructor"
    },
    {
      "inputs": [],
      "name": "getTotalWaves",
      "outputs": [
        {
          "internalType": "uint256",
          "name": "",
          "type": "uint256"
        }
      ],
      "stateMutability": "view",
      "type": "function"
    },
    {
      "inputs": [],
      "name": "wave",
      "outputs": [],
      "stateMutability": "payable",
      "type": "function"
    },
    {
      "inputs": [],
      "name": "withdrawTips",
      "outputs": [],
      "stateMutability": "nonpayable",
      "type": "function"
    }
  ],
  "bytecode": "0x608060405234801561001057600080fd5b5033600160006101000a81548173ffffffffffffffffffffffffffffffffffffffff021916908373ffffffffffffffffffffffffffffffffffffffff16021790555061007d6040518060600160405280603481526020016108926034913961008260201b6101b21760201c565b610205565b61011e816040516024016100969190610183565b6040516020818303038152906040527f41304fac000000000000000000000000000000000000000000000000000000007bffffffffffffffffffffffffffffffffffffffffffffffffffffffff19166020820180517bffffffffffffffffffffffffffffffffffffffffffffffffffffffff838183161783525050505061012160201b60201c565b50565b60008151905060006a636f6e736f6c652e6c6f679050602083016000808483855afa5050505050565b6000610155826101a5565b61015f81856101b0565b935061016f8185602086016101c1565b610178816101f4565b840191505092915050565b6000602082019050818103600083015261019d818461014a565b905092915050565b600081519050919050565b600082825260208201905092915050565b60005b838110156101df5780820151818401526020810190506101c4565b838111156101ee576000848401525b50505050565b6000601f19601f8301169050919050565b61067e806102146000396000f3fe6080604052600436106100345760003560e01c80633aaa74b2146100395780636fe15b44146100505780639a2cdc081461005a575b600080fd5b34801561004557600080fd5b5061004e610085565b005b6100586100e7565b005b34801561006657600080fd5b5061006f610184565b60405161007c91906104e5565b60405180910390f35b600160009054906101000a900473ffffffffffffffffffffffffffffffffffffffff1673ffffffffffffffffffffffffffffffffffffffff166108fc479081150290604051600060405180830381858888f193505050506100e557600080fd5b565b6000341161012a576040517f08c379a0000000000000000000000000000000000000000000000000000000008152600401610121906104c5565b60405180910390fd5b600160008082825461013c919061051c565b925050819055506101826040518060400160405280601c81526020017f25732064657520756d6120636172696e686120646520726169766121000000008152503361024b565b565b60006101aa604051806060016040528060278152602001610622602791396000546102e7565b600054905090565b610248816040516024016101c69190610443565b6040516020818303038152906040527f41304fac000000000000000000000000000000000000000000000000000000007bffffffffffffffffffffffffffffffffffffffffffffffffffffffff19166020820180517bffffffffffffffffffffffffffffffffffffffffffffffffffffffff8381831617835250505050610383565b50565b6102e38282604051602401610261929190610465565b6040516020818303038152906040527f319af333000000000000000000000000000000000000000000000000000000007bffffffffffffffffffffffffffffffffffffffffffffffffffffffff19166020820180517bffffffffffffffffffffffffffffffffffffffffffffffffffffffff8381831617835250505050610383565b5050565b61037f82826040516024016102fd929190610495565b6040516020818303038152906040527f9710a9d0000000000000000000000000000000000000000000000000000000007bffffffffffffffffffffffffffffffffffffffffffffffffffffffff19166020820180517bffffffffffffffffffffffffffffffffffffffffffffffffffffffff8381831617835250505050610383565b5050565b60008151905060006a636f6e736f6c652e6c6f679050602083016000808483855afa5050505050565b6103b581610572565b82525050565b60006103c682610500565b6103d0818561050b565b93506103e08185602086016105ae565b6103e981610610565b840191505092915050565b600061040160188361050b565b91507f6e206461207061726120646f61722073656d206e6164612100000000000000006000830152602082019050919050565b61043d816105a4565b82525050565b6000602082019050818103600083015261045d81846103bb565b905092915050565b6000604082019050818103600083015261047f81856103bb565b905061048e60208301846103ac565b9392505050565b600060408201905081810360008301526104af81856103bb565b90506104be6020830184610434565b9392505050565b600060208201905081810360008301526104de816103f4565b9050919050565b60006020820190506104fa6000830184610434565b92915050565b600081519050919050565b600082825260208201905092915050565b6000610527826105a4565b9150610532836105a4565b9250827fffffffffffffffffffffffffffffffffffffffffffffffffffffffffffffffff03821115610567576105666105e1565b5b828201905092915050565b600061057d82610584565b9050919050565b600073ffffffffffffffffffffffffffffffffffffffff82169050919050565b6000819050919050565b60005b838110156105cc5780820151818401526020810190506105b1565b838111156105db576000848401525b50505050565b7f4e487b7100000000000000000000000000000000000000000000000000000000600052601160045260246000fd5b6000601f19601f830116905091905056fe54656d6f7320756d20746f74616c20646520256420636172696e68617320646520726169766121a2646970667358221220ca5c84e8e6c21a279e2c7c3d72b35dad55a56dd1153749b19bb68149a8e14eb464736f6c63430008000033456820756d206c6f6e676f2063616d696e686f20646520766f6c74612c206d617320646520766f6c746120707261206f6e64653f",
  "linkReferences": {},
  "deployedLinkReferences": {}
}